:020000040800F2
:10000000200D0020450100080D480008D53C0008DF
:1000100009480008490A0008C17A000800000000E9
:100020000000000000000000000000000D6A000851
:100030004513000800000000F1570008157A000879
:100040005F0100085F0100085F0100085F01000810
:100050005F0100085F0100085F0100085F01000800
:100060005F0100085F0100085F0100085F010008F0
:100070005F0100085F010008E91200080113000891
:100080005F0100085F0100085F0100085F010008D0
:100090005F0100085F0100085F0100085F010008C0
:1000A0005F0100085F0100085F0100085F010008B0
:1000B0005F0100085F0100085F0100085F010008A0
:1000C0005F0100085F0100085F0100085F01000890
:1000D000E96100085F0100085F0100085F01000896
:1000E0005F0100085F0100085F0100085F01000870
:1000F0005F0100085F0100085F0100085F01000860
:100100005F0100085F0100085F0100085F0100084F
:100110005F0100085F0100085F0100085F0100083F
:100120005F0100085F0100085F0100085F0100082F
:10013000DFF80CD000F044F8004800476D7B000861
:10014000200D00200648804706480047FEE7FEE7EE
:10015000FEE7FEE7FEE7FEE7FEE7FEE7FEE7FEE777
:10016000837A00083101000840EA01039B0703D0AD
:1001700009E008C9121F08C0042AFAD203E011F8E6
:10018000013B00F8013B521EF9D27047D2B201E0A8
:1001900000F8012B491EFBD270470022F6E710B58C
:1001A00013460A4604461946FFF7F0FF204610BDE5
:1001B000421C10F8011B0029FBD1801A7047000077
:1001C000064C074D06E0E06840F0010394E80700A4
:1001D00098471034AC42F6D3FFF7AEFF0882000810
:1001E0002882000870B58C1810F8015B15F0070321
:1001F00001D110F8013B2A1106D110F8012B03E0C0
:1002000010F8016B01F8016B5B1EF9D12B0705D4C7
:100210000023521E0DD401F8013BFAE710F8013B10
:10022000CB1A921C03E013F8015B01F8015B521E2C
:10023000F9D5A142D8D3002070BD00002DE9F041CE
:1002400005460F460024A046601EFA49088001209A
:10025000F949087005F0100040B14FF00108F74867
:10026000007820F01000F549087010E0F34800789D
:1002700000F0100028B105F00F00012801D0BDE802
:10028000F081EE48007800F00F00EC49087005F0AE
:100290000F05EA4806783007060E7019C6B2442EDC
:1002A00024D008DC122E0FD0222E10D0242E13D0F2
:1002B000422E22D10AE0482E16D0822E05D0842E5E
:1002C00013D0882E19D112E000BF00BF00BF02205A
:1002D00000F036FE044610E0D949DA4800F0F4FA9E
:1002E000044604B109E000BF00BF00BF00BFD6480C
:1002F000007800F025FE044600BF00BF002C7DD131
:100300000020D24908803046342E78D01EDC2228C6
:1003100076D00EDC142874D006DC112872D0122896
:1003200033D013286FD12AE018286DD02128F9D1B5
:10033000C3E0282869D004DC232867D02428F1D121
:1003400043E031281DD03228ECD1E5E0482864D0C4
:100350000CDC42287AD004DC382878D04128E1D15E
:100360009FE0432874D04428DCD1B2E081380828CB
:1003700049D2DFE800F08A76D06ED5D5D5AF132408
:10038000D0E0132400F05AFBCCE007F07BFBB04830
:10039000007800B95124BCB903F084FF04464CB97D
:1003A0000020A549087000F02AFB044614B901207A
:1003B000A849087044B1FF2C06D09F48007808B9BE
:1003C00000F023FB03F0DCFFACE006F06FFF044617
:1003D00074B90020984908709F4800F00DFB04464E
:1003E00034B99D48008806F0E3FE01209B4908705F
:1003F00094B1FF2C10D09048007808E093E08CE096
:1004000066E083E061E08BE081E081E081E008B9B3
:1004100000F0F9FA07F084FA84E007F057FA04468E
:100420004CB900208449087000F0EBFA044614B976
:1004300001208B49087044B1FF2C06D07E4800781B
:1004400008B900F0E4FA07F0DBFA6BE015E065E0CC
:1004500060E000F0DCFA07F0D3FA0020764908707B
:1004600060E000F0D4FA044607F0CAFA00207249AE
:10047000087004B156E0422600BF00F0C4FA07F04D
:100480004FFA00206C4908704CE000F0C0FA0446B6
:1004900007F0B6FA00206849087004B142E041262E
:1004A00000BF00F0B0FA044607F03AFA00206249B3
:1004B000087004B136E0212600BF03F061FF00F0B0
:1004C000A4FA044600F0BAFA2CE000F0B7FA00BF34
:1004D00000BF00BFB8F1000F02D0304600F0F2F9C3
:1004E0005648007800F00C0070B15548008800288C
:1004F00003DD022001F084FB06E05248008800285A
:1005000002DD032001F07CFBFE240BE000BF00BFF6
:1005100000BF00BF00BF00BF00BF00BF112401E04B
:10052000122400BF24E04548007802280DD004289A
:1005300006D008281CD100F06AFA07F061FA00BF63
:1005400000F061FA07F0ECF900BF162C0DD103F0B2
:1005500017FF00F05AFA002000F0F5FE012000F02D
:10056000F2FE01203549087002E00220334908708C
:10057000FF2C2CD101203B490870344806800088AC
:10058000122806D0132805D0242808D048280CD1DA
:1005900006E000BF4FF4FA602649088009E000BF7A
:1005A00042F228302349088003E0C820214908800E
:1005B00000BF00BF1F48B0F900000A2190FBF1F016
:1005C0001C490988081A00B21A49088064E01B48CF
:1005D000007800F00F00A84256D004B9DFB11748E8
:1005E0000078284300F00800A8B11D48007818B131
:1005F00000F00DFA07F004FA11480088002803DD26
:10060000022000F0A0FE06E00E480088002802DD6F
:10061000032000F098FE3CB308480078082802D177
:100620000420064908700548007840F0100003498E
:10063000087020E0E20300200204002010040020E3
:100640000A040020080400200C04002004040020F8
:100650002C0400204E04002018040020DD0300209C
:10066000DC03002003040020FFE717B13C4645F0FF
:1006700010050A48057000200949087021460748FE
:10068000007806F0A9FD07E0002005490870002168
:100690000248007806F0A0FD00BFF0E5100400203D
:1006A0000304002070B57748007800287AD0002431
:1006B0000025002674480088002855D1734800881A
:1006C000C0F3071571480088122806D0132805D0FA
:1006D000242812D0482846D11EE000BF6C4800787C
:1006E00008B900F092F903F04BFE6A48007810B1A7
:1006F0006948068800E0012635E06548007808B9B9
:1007000000F081F907F00CF96248007810B16248F6
:10071000068800E0012626E06048007878B160484D
:10072000007808B92D2615E05E48007828B95E48A3
:100730000088002801DD1B260CE01A260AE05A4832
:100740000088002801DD1B2604E008250026012082
:100750005649087036B14E48007808B900F057F98C
:1007600007F04EF900BF80E048480088122806D004
:10077000132805D024281DD0482875D131E000BFAA
:1007800043480078A8B100204149087000F037F9CB
:10079000044644B90120464908703C48007800F0FE
:1007A0000F0506E06DE0FF2C03D000F02EF903F0FA
:1007B000E7FD59E03648007890B1002034490870D0
:1007C0003C4800F019F9044624B901203A49087060
:1007D000042505E0FF2C03D000F015F907F0A0F880
:1007E00042E02B48007828B32C48007818B33348EF
:1007F000B0F90000002836DD3048B0F9000030497B
:10080000B1F9001088422EDC00202C4908802C49C8
:1008100008801F49087000F0F4F8044624B901204C
:100820002249087008251EE0FF2C1CD000F0EFF8CC
:1008300007F0E6F817E01C48008810B11948007866
:1008400088B100201249087000F0DBF8044624B992
:10085000012016490870082505E0FF2C03D000F0A0
:10086000D6F807F0CDF800BF00BF4DB10020054914
:1008700008700EB145F010053146284606F0ACFC74
:1008800000BF70BD03040020E20300200404002028
:1008900002040020FF03002000040020E0030020E9
:1008A000E4030020DE0300200A040020DC03002013
:1008B0004E04002018040020DD030020EC0300207B
:1008C000EE030020704770472DE9F34F81B0814659
:1008D00000200090002780460025002482468346A1
:1008E000002600BF24E0334931F8150004F0E6F893
:1008F0000446B4B1A069B0F800A000260EE0711C57
:10090000C8B2214604F021F8A16901EBE00B9BF885
:10091000000040441FFA80F8701C86B25645EEDB9A
:1009200004E04FF000082520009006E0681C85B226
:100930002048801E0088A842D5DC00BF08F10700CF
:100940004FEAE008009850BB002522E01A4931F830
:10095000150004F0B3F80446ACB1A069B0F800A0EB
:1009600000260DE0711CC8B2214603F0EEFFA1691C
:1009700001EBE00B9BF80000384487B2701C86B294
:100980005645EFDB03E000272420009006E0681CBA
:1009900085B20948801E0088A842D7DC00BFF81D38
:1009A000C710A9F800700298A0F800800098BDE870
:1009B000FE8F0000A2040020A60400200020704743
:1009C00010B50446012240F61871034803F018F8E8
:1009D00001480068206010BDA804002010B504463E
:1009E000044821680160012240F6117103F078F893
:1009F00010BD0000AC04002001460020704700201C
:100A0000704700207047002070470020704700208A
:100A1000704770B5054600262C4607E0204600F0DA
:100A200015F806460EB1304670BD283420894FF6C1
:100A3000FF718842F2D13046F6E7000000200149FC
:100A4000087070477004002000BFFEE701460029CF
:100A500040D02148006848B91F48016000201E4A64
:100A6000126850601C4A1268106070471A4800688B
:100A700000890A8990420BDD002008601648006852
:100A80004860154800680160134801600020ECE7E9
:100A9000114802681BE010890B89984201D101209E
:100AA000E3E710890B89984209DD106808604A6005
:100AB000106808B11068416011600020D5E75068E7
:100AC00020B951600A6000204860CEE75268002AD1
:100AD000E1D100BF0120C8E76801002030B5074818
:100AE0000468002504E025896468284600F030F990
:100AF000002CF8D100200149086030BD68010020B9
:100B000010B504460E48006840B100210C4800684A
:100B100003F004FB00200A4908600FE04FF48070E6
:100B200007F05CF804460CB9072010BD0E220549F9
:100B30002046FFF719FB204605F016F90020F4E7E0
:100B4000A003002030060020014800687047000024
:100B500068010020002002490860024908807047AF
:100B6000A0030020C804002038B5002425480068F0
:100B7000002845D024480078009024480368244881
:100B8000026824480178244800881E4D2D68A84733
:100B90000446FF2C34D021480078012811D00228C7
:100BA00004D0032814D004281AD110E01C4800688F
:100BB00030B11B48006806F0B1FF002018490860FA
:100BC00000BF00221146204605F040FA08E000BFB1
:100BD0000E4802680E480168204605F037FA00BF4B
:100BE00000BF00200D4908700B49088009490870B2
:100BF0000749086005490860034908700149086011
:100C000038BD0000C0040020B1040020BC04002056
:100C1000B8040020B2040020B4040020B004002076
:100C2000C404002010B500240020074908600748CC
:100C3000FFF7EFFE04460CB1204610BD0448FFF755
:100C4000E8FE04462046F8E7680100206C01002019
:100C50001000002038B520202E4908800020488050
:100C6000486044F21F0088812B48086100204861D9
:100C7000888308620885488581F84000202027493C
:100C800008800020488023484068486021488089C7
:100C900088812148086100204861888308620885AE
:100CA000488581F840001E490870FFF7BBFF0446E5
:100CB0000CB1FFF713FF00201A4908701A49087099
:100CC0001A4908801A4908701A4908601A490860C8
:100CD0001A4908601A4908600090042208216846F1
:100CE00002F08EFE00980090009800F0080018B105
:100CF00000201449087008E00120124908700422FD
:100D00004FF41161104802F07BFE4FF47A600F49F6
:100D1000086038BDA8050020A0860100EC05002071
:100D200070040020B0040020B1040020B4040020AE
:100D3000B2040020B8040020BC040020C00400203D
:100D4000C4040020FC030020080000200C00002048
:100D500030B503460E49086815E00189994211D162
:100D60000268416802B1516001B10A600024046068
:100D700044600489064D2D682D89AC4201D1044C94
:100D8000216030BD40680028E7D100BFF9E70000CE
:100D90006801002070B504460025E088000B092892
:100DA00017D2DFE800F01610050F111213140A0015
:100DB000204604F0ADFD05460DE0204604F0D4FFCA
:100DC000054608E000BF00BF00BF00BF00BF04250C
:100DD00001E0052500BF00BF284670BD08B51948D1
:100DE000007828B318480068009004224FF411617D
:100DF000684602F005FE1448D0E9002000221346A0
:100E000000990A4318431049C1E900200F4900988E
:100E10000968884208D20C48D0E90010091C40F14A
:100E20000100094AC2E9001008490098086005E07D
:100E300008224FF41161044802F0E2FD0020044949
:100E4000086008BDFC03002000000020080000200E
:100E50000C0000201348408D002805DC1148008D4F
:100E600011490989884204DD01200E4981F84000BA
:100E700003E000200B4981F840000C48408D002819
:100E800005DC0A48008D08490989884204DD0120F3
:100E9000064981F8400003E00020044981F8400041
:100EA00070470000A805002074040020EC05002015
:100EB00008B51C480088E8B10020009004224FF4D7
:100EC0008861684602F09CFD00980090009800F050
:100ED000010070B91448008800280ADD1348007822
:100EE00020B11B210420FFF7A9F908BD00201049FB
:100EF000087000BF0F48007890B10C48007878B1B6
:100F00000D48007820B92C210420FFF797F9ECE771
:100F10000A48007820B91A210420FFF78FF9E4E786
:100F200000BFE2E7120400200A040020DC030020D6
:100F3000DE030020E0030020E4030020EA03002099
:100F40002DE9F04780460027002500269B480088B1
:100F500041F6FF7188420BDB98480088884207DB26
:100F600096480088884203DB94480088884202DA69
:100F70001420BDE8F087002001F0A4F804462068A2
:100F8000050C208886B2606800F4803008B9162706
:100F90001FE0207900F00C00042801D0162718E08B
:100FA000207900F00200022801D0162711E0222D3E
:100FB00001DA16270DE0B5F5807F01DD162708E080
:100FC000B6F5805F01DA162703E0B6F5005F00DBB7
:100FD000162717BB012001F075F804462068050CA0
:100FE000208886B2606800F4803008B916271EE0B9
:100FF000207900F00C0008B1162718E0207900F0E5
:101000000200022801D0162711E0222D01DA16274E
:101010000DE0B5F5807F01DD162708E0B6F5805FAD
:1010200001DA162703E0B6F5005F00DB1627002F74
:1010300051D1B8F1030F4EDD012061490870032042
:1010400001F040F804462068050C208886B26068EC
:1010500000F4803010B10DB9042736E0606800F468
:10106000803068B357480088854204D155480088CD
:1010700008B1082D01DD032727E0207900F00C00DE
:10108000E0B951480078022805D1B6F5805F02DB4F
:10109000B6F5005F07DB4C48007802280CD04B48BF
:1010A0000088864208D1207900F0020002280CD185
:1010B00000204349087008E0022706E0042704E006
:1010C00015B94048008800B1032727B139460320ED
:1010D00005F0F4FF1E27EFBBB8F1020F5ADD022026
:1010E00000F0F0FF04462068050C208886B2606896
:1010F00000F4803010B10DB9042745E0606800F4B9
:10110000803040B332480088854236D1304800886C
:1011100080B3082D31DC207900F00C0004282AD19E
:1011200029480078022805D1B6F5805F02DBB6F5C4
:10113000005F07DB24480078022819D02548008882
:10114000864215D1207900F0400028B101202249C3
:10115000087004E01EE012E000201F4908702079AA
:1011600000F0020002280FD10020154908700BE0A2
:10117000022709E001E0042706E0032704E015B98F
:101180001348008800B1032727B13946022005F033
:1011900095FF1D2787B9C1460AE0484600F092FF37
:1011A00004460E496068086009F1010000F0FF097B
:1011B0000B4800788145F0DB3846DAE60E04002063
:1011C000FE03002008040020100400201604002064
:1011D0000A04002014040020DF0300202004002063
:1011E0000C0400200246022940D003DC39B1012959
:1011F0006ED106E0032952D0222969D125E00020D2
:10120000704741F6324082420BD1334800880028B3
:1012100007DD3248007B00F00200002801DD0020DD
:10122000EEE741F6334082420ED12D48007B00F0BC
:101230000200002808DD2848008828B929480088CD
:10124000002801DD0020DBE742E041F63340824226
:101250000BD12348007B00F00200002805DD1E486A
:101260000088002801DD0020CAE731E041F6324065
:10127000824207D11948007B00F00400002801DDFC
:101280000020BDE741F63340824207D11448007B7D
:1012900000F00400002801DD0020B1E718E041F66D
:1012A0003240824207D10D48007B00F00800002840
:1012B00001DD0020A4E741F63340824207D108480F
:1012C000007B00F00800002801DD002098E700BF47
:1012D00000BF122094E700000A040020A8050020A7
:1012E000EC0500200804002010B501200249086028
:1012F000024800F0EFFF10BDFC040020980600201B
:1013000010B5012002490860024800F0E3FF10BD5B
:1013100000050020DC06002030B590F84050012484
:10132000AC40C56B6C60046863604468102C04D1E9
:101330000468A2600468E16003E00468A1600468D6
:10134000E26030BD704738B504464FF080700090C1
:10135000E00000F6040504222946684602F0C0FBBE
:1013600000BF04222946684602F04AFB009800F0BC
:1013700080700028F5D038BD10B50948007F00F016
:10138000010020B90748007F00F0010020B10648A5
:10139000008808B902F06AFCFFF795FA10BD00005A
:1013A000A8050020EC0500200A04002038B5002024
:1013B000009004221146684602F022FB009800903B
:1013C0000098000A2A4908700098000C40F6FF7146
:1013D00001EB80202749088006F054FB002404E03C
:1013E0002046FFF7B0FF601CC4B221480078844259
:1013F000F6DB02F06DFD00201F4908701F490870E0
:101400001F4908701F4908701F4908701F4908705C
:101410001F4908701F4908801F4908801F4908801C
:101420001F4908801F4908801F4908701F4908701C
:101430001F4908801F4908801F4908801F490880EC
:1014400001201F49087000211D48007805F0C4FEE6
:1014500000201C4908801C4908701C49087000F0D5
:10146000F5F8FFF777FB002004F03EFA38BD0000E6
:101470000C0400200E0400200204002003040020BD
:10148000DE030020DC030020DD0300201104002027
:10149000DF03002012040020F0030020F2030020EC
:1014A000F4030020F6030020E0030020FF030020E7
:1014B00000040020180400200A0400200804002072
:1014C000100400200404002006040020FD03002076
:1014D0007CB500254FF48030019002F0A7FE4C4807
:1014E000007838B1042240F60C0101A802F088FA15
:1014F0000198019002F064FB044600BF04F0010073
:10150000B8B144480078A0B90020009004224FF4FC
:101510009071684602F074FA009885B2C5F34010E5
:101520003D49087024F01104E8B20021FEF786FE60
:1015300000BF04F01000B0B13648007898B93748C1
:10154000007800F0100070B93448007820F01000E6
:10155000012808D024F010043049097801F00F0068
:101560000021FEF76BFE2B48007808B1FFF79AF8D0
:1015700027480078002849D0019800F4803030B91D
:101580002649097801F00F000021FEF757FE04F408
:10159000007060B1002022490860042221480188BF
:1015A0001F4802F09DFA24F4007402F0FBFC01983D
:1015B00000F4003010B11C48007830B1019800F4FC
:1015C0000030C0B918480078A8B102F073FD164881
:1015D000007820B1019840F00070019003E001987C
:1015E00020F00070019001980190042240F60C0157
:1015F00001A802F075FA02F0E3FA044600BF04F411
:10160000807018B124F4807402F070FB7CBD00007F
:101610004E040020030400201104002010040020C8
:101620001C040020560400204F04002070B505461D
:1016300000F02CFD044614B1204600F04BF870BDBC
:1016400010B500F0EFFC0446204610BD10B5002098
:1016500017490880488088800220C880002406E05E
:1016600000211348083040F82410601CC4B2012C3B
:10167000F6DB00200F490880488088800220C8805F
:10168000002406E000210B48083040F82410601CBC
:10169000C4B2012CF6DB002406E0074901EBC400CC
:1016A00004F0A8F8601CC4B2012CF6DB10BD0000E9
:1016B00020050020300500202E040020044800886A
:1016C00003494988884201D1012070470020FCE786
:1016D0002005002010B504461A48007828B91A4899
:1016E000007800F00F0001280AD1204604F0ACF881
:1016F0001648007840F0010014490870002010BD21
:10170000102006F06BFA124908600846006808B914
:101710000220F4E70E4800680E490A680260496832
:1017200041600B480068216881606168C1600121E7
:101730000748006802F0F2FC10B9204604F05AF89D
:101740000020DCE74D040020100400205A04002093
:101750005C0400204E81000802460020108050806A
:101760000A2008801348036853608088108110881D
:1017700040F0010010800888801D08800E488078A5
:1017800000020D4B5B8840EA132050810A48007824
:101790000002094B1B8840EA13239381108840F014
:1017A000020010800888001D08801088108000202A
:1017B00070470000460400203604002070B504463F
:1017C0000D460448006820B129462046014A1268A7
:1017D000904770BD50030020F8B5044600262588C8
:1017E00005F0010028B136486168016021898180D7
:1017F00003E0334800210160818005F0020070B1F0
:10180000207B0102A08941EA10202E490880A07A9D
:101810000002618940EA11202A49488002E02948F3
:101820000021016005F0040070B1207C0102208AD3
:1018300041EA102024490880A07B0002E18940EAA7
:1018400011202149488002E01F480021016005F075
:10185000080070B1207D0102A08A41EA10201B49D6
:101860000880A07C0002618A40EA11201749488064
:1018700002E016480021016005F0100070B1207EE2
:101880000102208B41EA102011490880A07D00024E
:10189000E18A40EA11200E49488002E00C4800210C
:1018A00001600C48006840B10948084B064A0549E8
:1018B00000900348074F3F68B8473046F8BD000026
:1018C00046040020360400203A0400203E04002094
:1018D000420400205403002010B504460848006864
:1018E00040B100210648006802F018FC00200449BD
:1018F000086004E00348007808B105F01BFB10BD48
:10190000A8030020A403002010B5044634B90C48F5
:10191000006818B10A48006806F000F9002008497C
:10192000086034B90748006818B10648006806F036
:10193000F5F80020034908600349087010BD000055
:10194000A8030020C0030020A40300202DE9F05FBD
:1019500004464FF00009A51D26880427042E72D3E3
:10196000287800F00F0007286ED2DFE800F004EFBF
:10197000C8EEEDECEB00A87800F03F009A4909783A
:10198000884216D09848007860B19848006830B115
:101990009648006806F0C2F80020944908600020CC
:1019A00091490870A87800F03F0010B10020BDE810
:1019B000F09F8D48007818BB6888C0F385104001FF
:1019C0008B4908808948006830B18848006806F073
:1019D000A5F80020854908608548008806F0FEF8D3
:1019E000824908600846006808B90720DFE7002040
:1019F00080490880688800F470407F49088025E0AD
:101A00006888C0F385104FEA401A688800F4704B6C
:101A100078480088824503D177480088834514D0F0
:101A20007248006830B17148006806F077F800200D
:101A30006E4908601CB1204606F070F800240020B2
:101A400069490870B3E7C3E0B6E000BF301F86B253
:101A500068480088304466490988884215DC654931
:101A600009884910614A126802EB41003246291D7B
:101A7000FEF77AFB5F48008830445E4908805A4888
:101A80000078401C5849087012E05848006830B18E
:101A90005648006806F042F80020544908601CB11E
:101AA000204606F03BF8002400204F4908707EE7EE
:101AB000288800F48070D8B1288800F4007020B124
:101AC0004C480088001F4B4908804A480188474815
:101AD0000068FFF773FE0020434908704348006820
:101AE00030B14248006806F019F800203F4908600C
:101AF0001CB1204606F012F80024002057E705F13B
:101B0000040898F8000000F0010028B1B81D87B261
:101B1000BE4201DA06204AE798F8000000F0020011
:101B200028B1381D87B2BE4201DA06203FE798F897
:101B3000000000F0040050B1381D87B2BE4206DA42
:101B4000062034E72EE03BE039E036E036E098F856
:101B5000000000F0080028B1381D87B2BE4201DA4B
:101B6000062024E798F8000000F0100028B1381D86
:101B700087B2BE4201DA062019E798F8000000F0AB
:101B8000200020B1781C864201DA06200FE740468B
:101B9000FFF722FE814604202080A4F8089003204D
:101BA000E08014E02146281DFFF7D6FD814607207E
:101BB000E080A4F808900AE000BF00BF00BF00BFAB
:101BC0000320E080042020800221218100BF01E069
:101BD0000620ECE60821204602F0A0FA08B10748EA
:101BE00004600020E3E60000B8030020C0030020EA
:101BF000BA030020BC030020BE030020A80300207D
:101C000038B5044600200090E00000F604050422E8
:101C10002946684601F064FF00BF04222946684651
:101C200001F0EEFE009800F080700028F5D138BD7C
:101C30007047000070B505460C460748006838B18B
:101C40002246064801882846034B1B68984770BD0A
:101C50004FF40040FBE700005C030020D8030020A5
:101C600070B506460C46154629462046FFF7E2FFAA
:101C700070BD000010B504460548006838B1002169
:101C80000348006802F04AFA00200149086010BDCC
:101C9000D40300202DE9F04107460C4600250F48EB
:101CA00000880C38A04200D101250D48006890B191
:101CB00000262A4621463846094B1B6898470646A7
:101CC000002E02DD3046BDE8F08115B947F6FC7004
:101CD000F9E70020F7E74FF40040F4E75204002052
:101CE0006803002010B504460348006818B1204678
:101CF00001490968884710BD60030020002003499E
:101D0000088003490860034908607047D003002039
:101D1000C4030020D4030020F8B506460F4614463D
:101D20001D460948006858B10848009403882A46AF
:101D300039463046DFF810C0DCF800C0E047F8BD97
:101D40004FF40040FBE7000058030020D8030020B8
:101D50002DE9F041044648F204052088801F86B230
:101D60002088062802D20620BDE8F081E0880728F6
:101D70002ED2DFE800F0A6042E4462879500944836
:101D8000008828BB2189608941EA00473B4604F16D
:101D90000C0231461046FFF7BFFF054600208D4973
:101DA000086047F69570854205DC01208A49086085
:101DB0008A4805600BE047F6FA70854207DC002090
:101DC000854908608549086001208149088000BF75
:101DD00077E07F48008888B92189608941EA004717
:101DE0003A46314604F10C0000F0FEF805460DB904
:101DF00047F6FD7500207849086000BF61E074482F
:101E00000088022803D072480088062814D121894E
:101E1000608941EA004770480068874209D131462D
:101E200004F10C00FFF736FF054625B947F6FD75AE
:101E300001E048F2050500BF43E06548008801283D
:101E400019D104F10C0165480068FFF7F3FE05465F
:101E5000624800685F49086047F69570854210DC6B
:101E60005E48006828445D4908605B480068401C83
:101E70005949086005E056480088042801D147F612
:101E8000FE751EE05248008848B12189608941EA08
:101E900000473846FFF726FF47F6FF7500BF10E002
:101EA0004B480088012803D049480088042807D1FE
:101EB000208904F10C0247490968FFF7D1FE054665
:101EC00000BF00BF47F69570854215DC424908689F
:101ED0000321E1802081020C6281A91D21804049FB
:101EE00009880C39A94203D10121394A118002E045
:101EF0000421374A118061E047F6FA7085420ADC16
:101F00000620E080A5F5FE40963820810021618101
:101F10000620208052E047F6FD70854202D0401E28
:101F2000854218D12C4908680968491C2A4A116061
:101F30000421E1802081020C62810621218047F684
:101F4000FD718D4203D10221214A118002E000215E
:101F50001F4A118032E0B5F5004F07DA00201C4916
:101F60000880204605F0DAFD0020FDE62946002025
:101F70000522E28021810B0C63810622228010E081
:101F8000471004F10C0333F81720D3B203B90AE069
:101F9000431CD8B202F47F4303B904E0431CD8B217
:101FA00000BF2028ECDB00BF202803DA2388421C76
:101FB0001A4422800022064B1A8000BF402120468E
:101FC00002F0ACF808B1074804600020CCE600003D
:101FD000D0030020CC030020C4030020C80300204D
:101FE00050040020D403002070B504460D46164668
:101FF0000648006830B1324629462046034B1B682C
:10200000984770BD4FF40040FBE7000064030020D8
:1020100010B502224FF40871014801F02DFD10BDEA
:10202000F00400200C4909880B4A5288914211D0D3
:10203000094A1188083252F821004A1C91B2064A16
:1020400011801288044BDB889A4202D10022024B95
:102050001A8000E0002070473005002010B50146CE
:102060000A884B889A420ED00A8801F1080353F877
:102070002200531C9AB20A800B888C88A34201D19B
:1020800000230B8000E0002010BD00000C490988EF
:102090000B4A5288914211D0094A1188083252F8ED
:1020A00021004A1C91B2064A11801288044BDB8839
:1020B0009A4202D10022024B1A8000E000207047B1
:1020C0002005002010B504464FF4006000EBC40169
:1020D0000822024801F094FC004810BD24040020AE
:1020E00038B5044600200090002504224FF4116109
:1020F000684601F0C1FC009848B10098844202D8BB
:102100000098051B03E0C4F1FF300099451844B165
:1021100005480068A84203D2034800682D1A00E071
:102120000025284638BD00007803002070B504461D
:10213000002594F82100022803D00420A063012583
:10214000C1E02068006820F00E0021680860206867
:10215000006820F00100216808605C49206888421E
:1021600052D95A4978392068884201D1012047E084
:10217000564964392068884201D1102040E0534913
:1021800050392068884201D1801539E04F493C39E7
:102190002068884201D1801432E04C4928392068F7
:1021A000884202D14FF480302AE04849143920682F
:1021B000884202D14FF4801022E0444920688842CE
:1021C00001D140041CE042492068884201D101202D
:1021D00016E03F4914312068884201D110200FE0F9
:1021E0003B4928312068884201D1801508E03849F0
:1021F0003C312068884201D1801401E04FF48030E6
:102200003349091F086051E0304978392068884215
:1022100001D1012047E02D4964392068884201D16D
:10222000102040E0294950392068884201D18015AA
:1022300039E026493C392068884201D1801432E0D7
:10224000224928392068884202D14FF480302AE0A0
:102250001E4914392068884202D14FF4801022E0D0
:102260001A492068884201D140041CE018492068BE
:10227000884201D1012016E01549143120688842B6
:1022800001D110200FE0124928312068884201D185
:10229000801508E00E493C312068884201D1801445
:1022A00001E04FF48030094980394860012084F80A
:1022B000210000BF002084F8200000BF606B10B137
:1022C0002046616B8847284670BD000080000240B0
:1022D0000804024070B50446E06B05682068066893
:1022E00094F84010042088402840002875D006F05B
:1022F00004000028FAD02068006800F0200028B907
:102300002068006820F0040021680860D549206832
:10231000884254D9D34978392068884201D10420B1
:1023200049E0D04964392068884201D1402042E028
:10233000CC4950392068884201D100153BE0C94999
:102340003C392068884202D14FF4804033E0C549CF
:1023500028392068884202D14FF480202BE0C149FF
:1023600014392068884202D14FF4800023E0BD492F
:102370002068884201D1C0041DE0BB492068884222
:1023800001D1042017E0B84914312068884201D1F6
:10239000402010E0B44928312068884201D100155E
:1023A00009E0B1493C312068884202D14FF48040B5
:1023B00001E04FF48020AC49091F086054E0A949AE
:1023C00078392068884201D104204AE0A54964395F
:1023D0002068884202D1402043E04CE0A1495039B6
:1023E0002068884201D100153BE09E493C392068B5
:1023F000884202D14FF4804033E09A49283920685E
:10240000884202D14FF480202BE09649143920688D
:10241000884202D14FF4800023E09249206888422C
:1024200001D1C0041DE090492068884201D10420F8
:1024300017E08D4914312068884201D1402010E016
:10244000894928312068884201D1001509E0864970
:102450003C312068884202D14FF4804001E04FF4C3
:102460008020804980394860E06A002802D02046F8
:10247000E16A8847F4E094F8401002208840284040
:10248000002871D006F002000028FAD02068006809
:1024900000F0200040B92068006820F00A002168A0
:1024A0000860012084F821006E492068884254D9D0
:1024B0006C4978392068884201D1022049E0694995
:1024C00064392068884201D1202042E065495039B2
:1024D0002068884201D140153BE062493C392068C0
:1024E000884202D14FF4005033E05E492839206819
:1024F000884202D14FF400302BE05A491439206849
:10250000884202D14FF4001023E0564920688842E7
:1025100001D180041DE054492068884201D1022085
:1025200017E0514914312068884201D1202010E081
:102530004D4928312068884201D1401509E04A49B7
:102540003C312068884202D14FF4005001E04FF442
:1025500000304549091F086054E042497839206835
:10256000884202D102204AE057E03E49643920689F
:10257000884201D1202042E03A49503920688842FF
:1025800001D140153BE037493C392068884202D1EF
:102590004FF4005033E0334928392068884202D193
:1025A0004FF400302BE02F4914392068884202D1C3
:1025B0004FF4001023E02B492068884201D18004A9
:1025C0001DE029492068884201D1022017E02649F0
:1025D00014312068884201D1202010E0224928319E
:1025E0002068884201D1401509E01F493C3120682C
:1025F000884202D14FF4005001E04FF400301949F5
:102600008039486000BF002084F8200000BFA06A25
:1026100030B32046A16A884722E094F84010082091
:1026200088402840E0B106F00800C8B12068006882
:1026300020F00E002168086094F8401001208840C6
:10264000E16B48600120A06384F8210000BF0020F6
:1026500084F8200000BF206B10B12046216B884712
:1026600070BD0000800002400804024001460022C4
:1026700009B9012070471E4B086898420BD21D4BC8
:102680000868C01A1423B0FBF3F0800008641948EE
:102690000838C8630AE0164B0868C01A1423B0FB58
:1026A000F3F08000086412480838C863022081F8FB
:1026B00021000868026843F6F0708243D1E9010303
:1026C0001843CB6818430B6918434B6918438B694F
:1026D0001843CB69184302430868026000208863EE
:1026E000012081F82100002081F8200000BFC1E70F
:1026F00008040240080002402DE9F04104460D465E
:1027000016461F464FF0000800BF94F8200001282D
:1027100002D10220BDE8F081012084F8200000BF32
:1027200094F8210001282CD1022084F821000020F7
:10273000A0632068006820F00100216808603B4623
:10274000324629462046FEF7E7FDE06A30B12068B0
:10275000006840F00E00216808600BE02068006807
:1027600020F00400216808602068006840F00A003A
:10277000216808602068006840F001002168086056
:1027800006E000BF002084F8200000BF4FF00208E0
:102790004046BFE72DE9F847024600239C467BE10F
:1027A0004FF0010808FA03F4D1F8008008EA0400A9
:1027B000A0427DD1DFF8F4A2D1F80480A8EB0A0989
:1027C000D0453AD014DCB8F1030F50D009DCB8F191
:1027D000000F31D0B8F1010F1CD0B8F1020F49D170
:1027E00020E0B8F1110F18D0B8F1120F42D11EE05D
:1027F000B9F5881F25D006DCB9F5803F20D0B9F5A2
:10280000801F37D11AE0B9F5001F18D0B9F5041FA1
:1028100030D117E0D1F80CC02DE0D1F80C8008F1D0
:10282000040C28E0D1F80C8008F1080C23E0D1F862
:102830000C8008F10C0C1EE000BF00BF00BF00BF01
:1028400000BF00BFD1F80880B8F1000F02D14FF0EF
:10285000040C0BE0D1F80880B8F1010F03D14FF060
:10286000080C146102E04FF0080C546103E04FF0D3
:10287000000C00E000BF00BFFF2801D8904601E037
:1028800002F104084646FF2802D84FEA830803E015
:10289000A3F108084FEA88084746D6F800804FF0B1
:1028A0000F0909FA07F928EA09080CFA07F900E004
:1028B0007AE048EA0908C6F80080D1F8048008F0F8
:1028C0008058B8F1805F6FD100BFDFF8E481D8F89D
:1028D000188048F00108DFF8D891C9F81880C84678
:1028E000D8F8188008F00108CDF8008000BF00BFBC
:1028F0004FEAB9384FEA930958F829504FEA8378DC
:102900004FEA18794FF00F0808FA09F825EA080588
:10291000DFF8A081424502D14FF0000824E0DFF843
:102920009881424502D14FF001081DE0DFF88C810B
:10293000424502D14FF0020816E0DFF8848142459B
:1029400002D14FF003080FE0DFF87881424502D151
:102950004FF0040808E0DFF87081424502D14FF0E3
:10296000050801E04FF006084FEA83794FEA19792C
:1029700008FA09F848EA0505DFF850814FEA93099B
:1029800048F82950D1F8048008F48038B8F5803F21
:102990000BD1DFF83C81D8F8008048EA0008DFF866
:1029A0003091C9F800800AE075E0DFF82481D8F89A
:1029B000008028EA0008DFF81891C9F80080D1F8F3
:1029C000048008F40038B8F5003F0ED1DFF800812C
:1029D00008F10408D8F8008048EA0008DFF8F09011
:1029E00009F10409C9F800800DE0DFF8E48008F17E
:1029F0000408D8F8008028EA0008DFF8D49009F12C
:102A00000409C9F80080D1F8048008F48018B8F5EA
:102A1000801F0ED1DFF8B88008F10808D8F80080D0
:102A200048EA0008DFF8A89009F10809C9F8008011
:102A30000DE0DFF89C8008F10808D8F8008028EA4B
:102A40000008DFF88C9009F10809C9F80080D1F876
:102A5000048008F40018B8F5001F0ED1DFF870806C
:102A600008F10C08D8F8008048EA0008DFF8609008
:102A700009F10C09C9F800800DE0DFF8548008F175
:102A80000C08D8F8008028EA0008DFF8449009F123
:102A90000C09C9F800805B1CD1F8008028FA03F803
:102AA000B8F1000F7FF47CAEBDE8F887000011108C
:102AB0000010024000080140000C014000100140DD
:102AC0000014014000180140001C014008000140B2
:102AD00000040140024693680B400BB1012000E066
:102AE0000020704710B5C26821EA020302EA01041F
:102AF00043EA0443036110BD0AB1016101E00B0424
:102B00000361704701480068704700000805002015
:102B10000348006803490978084401490860704780
:102B2000080500201005002010B50848006840F096
:102B3000100006490860032000F0A8F8002000F00B
:102B400007F800F02BF8002010BD00000020024024
:102B500070B504460E4800784FF47A71B1FBF0F07E
:102B60000C490968B1FBF0F5284600F02FFF08B1C9
:102B7000012070BD102C07D200222146501E00F00B
:102B800047F80548046001E00120F2E70020F0E783
:102B900010050020140500200C05002008B500BF1A
:102BA0001148806940F001000F498861084680693A
:102BB00000F00100009000BF00BF00BF0846C069E0
:102BC00040F08050C8610846C06900F08050009015
:102BD00000BF00BF00BF0549486820F0E06040F03A
:102BE0000070486000BF08BD0010024000000140B6
:102BF00001460846002809DB00F01F0301229A4025
:102C000043099B0003F1E023C3F8002100BF704794
:102C10002DE9F05F80460D461646002704F052FF6E
:102C2000074639462A46334601F00700C0F1070A35
:102C3000BAF1040F02D94FF0040A01E0C0F1070A0B
:102C4000D14600F1040ABAF1070F02D24FF0000A90
:102C500001E0A0F1030AD4464FF0010A0AFA09FA8A
:102C6000AAF1010A0AEA020A0AFA0CFA4FF0010B69
:102C70000BFA0CFBABF1010B0BEA030B4AEA0B045A
:102C80002146404604F026FFBDE8F09F00BF00F05B
:102C90000702064B19684FF6FF031940044B0B431C
:102CA00043EA0221014B196000BF70470CED00E0C0
:102CB0000000FA0570B504460D460CB9012070BD40
:102CC0005A48006800F00700A8420ED25748006832
:102CD00020F007002843554908600846006800F0C6
:102CE0000700A84201D00120E9E7207800F00200A7
:102CF00002281DD1207800F00400042805D14C489A
:102D0000406840F4E0604A494860207800F00800DC
:102D1000082805D14648406840F46050444948605E
:102D20004348406820F0F000A168084340494860EB
:102D3000207800F0010078B36068012806D13C4893
:102D4000006800F4003090B90120B8E760680228FC
:102D500006D13748006800F0007040B90120AEE7A6
:102D60003348006800F0020008B90120A7E73048A6
:102D7000406820F00300616808432D494860FFF770
:102D8000C1FE064609E0FFF7BDFE801B41F2883117
:102D9000884202D9032092E707E02548406800F006
:102DA0000C006168B0EB810FEDD12048006800F0A5
:102DB0000700A8420ED91D48006820F007002843EC
:102DC0001A4908600846006800F00700A84201D0D0
:102DD000012074E7207800F00400042807D114488B
:102DE000406820F4E060E1680843114948602078B9
:102DF00000F00800082808D10D48406820F4605011
:102E0000216940EAC1000A49486000F019F8084900
:102E10004968C1F30311074A515CC840064908607C
:102E200006480068FFF794FE002048E700200240B3
:102E300000100240F0810008140500200C0500205D
:102E4000F0B585B00FF26C0C9CE8E01001A8A0E88A
:102E5000E0101CA52D68009500210022002300240D
:102E60000020194D696801F00C05F5B1042D02D060
:102E7000082D19D101E0154819E001ADC1F38346D1
:102E8000AC5D01F4803555B10F4D6D68C5F340451B
:102E90001DF805200D4D6543B5FBF2F302E00C4D26
:102EA00004FB05F3184602E000BF084800BF00BF5E
:102EB00005B0F0BD02030405060708090A0B0C0D56
:102EC0000E0F1010010200000010024000127A00E4
:102ED00000093D00F8B504460CB90120F8BD207882
:102EE00000F00100002878D0F848406800F00C009D
:102EF00004280CD0F548406800F00C00082811D1D7
:102F0000F248406800F48030B0F5803F0AD1EF48C5
:102F1000006800F4003000285FD0606800285CD1B1
:102F20000120DBE700BF6068B0F5803F06D1E748CD
:102F3000006840F48030E549086028E0606858B9CE
:102F4000E248006820F48030E049086008460068E4
:102F500020F4802008601AE06068B0F5A02F0BD143
:102F6000DA48006840F48020D849086008460068C4
:102F700040F4803008600AE0D448006820F48030D3
:102F8000D24908600846006820F48020086000BF2D
:102F9000606888B1FFF7B6FD054606E0FFF7B2FDB1
:102FA000401B642801D9032098E7C848006800F452
:102FB00000300028F2D010E0FFF7A4FD054606E03F
:102FC000FFF7A0FD401B642801D9032086E7BF4816
:102FD000006800F400300028F2D1207800F00200F0
:102FE000022857D1B948406800F00C0050B1B748EA
:102FF000406800F00C00082818D1B448406800F47C
:10300000803098B9B148006800F0020020B1206912
:10301000012801D0012061E7AC48006820F0F800E9
:10302000616940EAC100A949086033E02069E8B15C
:103030000120A7490860FFF765FD054606E0FFF798
:1030400061FD401B022801D9032047E79F48006823
:1030500000F002000028F2D09C48006820F0F80040
:10306000616940EAC1009949086013E0002098496D
:103070000860FFF747FD054606E0FFF743FD401BEC
:10308000022801D9032029E79048006800F00200D7
:103090000028F2D1207800F0080008282DD1A0697E
:1030A000B8B101208B490860FFF72CFD054606E00A
:1030B000FFF728FD401B022801D903200EE78348B3
:1030C000406A00F002000028F2D0012002F0D0FB9C
:1030D00013E000207F490860FFF714FD054606E075
:1030E000FFF710FD401B022801D90320F6E67748C0
:1030F000406A00F002000028F2D1207800F00400BD
:10310000042873D100277148C06900F0805070B95D
:1031100000BF6E48C06940F080506C49C8610846E5
:10312000C06900F08050009000BF00BF01276A48CE
:10313000006800F48070B0B96748006840F480709F
:1031400065490860FFF7DEFC054606E0FFF7DAFC9C
:10315000401B642801D90320C0E65F48006800F4E2
:1031600080700028F2D000BFE068012806D15748DF
:10317000006A40F001005549086227E0E06858B94C
:103180005248006A20F00100504908620846006A6F
:1031900020F00400086219E0E06805280BD14B48D4
:1031A000006A40F00400494908620846006A40F09D
:1031B000010008620AE04548006A20F00100434926
:1031C00008620846006A20F00400086200BFE06858
:1031D000A0B1FFF797FC054609E0FFF793FC401B01
:1031E00041F28831884202D9032077E622E037484D
:1031F000006A00F002000028EFD012E0FFF782FC26
:10320000054608E0FFF77EFC401B41F2883188420A
:1032100001D9032062E62D48006A00F00200002870
:10322000F0D1012F05D12948C06920F080502749ED
:10323000C86100BFE069C8B32448406800F00C00D2
:10324000082860D0E069022848D10020204908669B
:10325000FFF758FC054606E0FFF754FC401B022828
:1032600001D903203AE61948006800F000700028F0
:10327000F2D1206AB0F5803F07D11448406820F4AD
:103280000030A168084311494860D4E908010843A7
:103290000E49496821F4741108430C494860012023
:1032A0000B490866FFF72EFC054607E03DE0FFF7F7
:1032B00029FC401B022801D903200FE603480068BF
:1032C00000F000700028F2D02FE000000010024053
:1032D0000000424280044242007000400020144935
:1032E0000866FFF70FFC054606E0FFF70BFC401BE6
:1032F000022801D90320F1E50E48006800F00070B3
:103300000028F2D111E0E069012800D1E6E5094882
:10331000466806F48031206A814204D106F47011B7
:10332000606A814201D00120D8E50020D6E5000086
:10333000000042420010024070470000F8B5044609
:103340002068466820688568C5F3801048B905F094
:10335000010030B1C6F3801018B12046216C8847B7
:10336000F8BDC5F3400030B1C6F3C01018B1204617
:10337000616C8847F4E7C5F3401018B9C5F38010B5
:10338000002871D0C6F3401000286DD0C5F380101E
:10339000F0B194F8510003280ED0606D40F00400A5
:1033A000606500BF002000902068C0680090206821
:1033B0008068009000BF0BE000BF002000902068F4
:1033C000C068009020688068009000BF00BFC7E719
:1033D000C5F3401088B1606D40F00100606500BF2A
:1033E000002000902068806800902068006820F02D
:1033F00040002168086000BF00BF606D70B32068A6
:10340000406820F0E00021684860012084F8510005
:1034100006F0020010B906F0010000B32068406811
:1034200020F0030021684860E06C50B10F48E16C67
:103430004863E06CFEF77AFE18B1606D40F0400022
:103440006065A06C50B10948A16C4863A06CFEF7A0
:103450006DFE18B1606D40F04000606502E02046EE
:10346000FFF76AFF7CE7FFE700BF79E7D166000856
:1034700010B504460CB9012010BD606A38B9606807
:10348000B0F5827F00D105E00021E16102E000217A
:10349000216161610021A16294F8510028B90020E6
:1034A00084F85000204600F043F8022084F85100D0
:1034B0002068006820F0400021680860A08800F4BF
:1034C0008270218901F404410843A18901F400615B
:1034D0000843217C01F002010843217D01F0010134
:1034E0000843218B01F400710843217F01F038016A
:1034F00008432021095D01F080010843218D01F47A
:1035000000510843216808600421A06901EA1040C5
:10351000216848602068C06920F400602168C861A3
:1035200000206065012084F851000020A4E700001D
:1035300010B586B0044600200290039004900590D8
:103540003849206888426AD100BF3748C06940F4D2
:1035500080403549C8610846C06900F48040019048
:1035600000BF00BF00BF0846806940F008008861C6
:103570000846806900F00800019000BF00BF4FF4CA
:1035800020400290022003900320059002A92748C2
:10359000FFF700F94FF48040029000200390049060
:1035A00002A92248FFF7F6F82148224908600020C6
:1035B000486000211F4881608021C16000210161B5
:1035C00041618161C161FFF751F808B1FEF730FB3D
:1035D00000BF1848E064446200BF15481430164923
:1035E0000860102048600021134881608021C1607C
:1035F0000021016141618161C161FFF737F808B1C4
:10360000FEF716FB00BF0C48A064446200BF002216
:1036100011462420FFF7FCFA2420FFF7E9FA06B050
:1036200010BD00000038004000100240000C0140B6
:103630004400024098060020DC0600202DE9F041FD
:1036400004460E4615460027A06870B96068B0F5BC
:10365000827F0AD1042084F851002B46324631463D
:10366000204600F07BF8BDE8F08100BF94F85000E0
:10367000012801D10220F6E7012084F8500000BFA4
:1036800094F85100012801D0022757E006B10DB986
:10369000012753E0042084F8510000206065A663F0
:1036A000A587E58720646064A086E086A068B0F501
:1036B000004F0BD12068006820F0400021680860AE
:1036C0002068006820F48040216808601F48E16C91
:1036D000C8621F48E16C88621E48E16C08630020E4
:1036E000E16C4863E38FD4F800C00CF10C01A26BCD
:1036F000E06CFFF701F840B1606D40F010006065CC
:103700000127012084F8510018E02068006800F0CB
:103710004000402805D02068006840F04000216843
:1037200008602068406840F02000216848602068F8
:10373000406840F001002168486000BF00BF0020E1
:1037400084F8500000BF38468DE700000D67000880
:1037500037670008E5660008704770472DE9F047B5
:1037600004460E4617461D464FF0000A00BF94F867
:103770005000012802D10220BDE8F087012084F822
:10378000500000BF94F85180D4F80490B8F1010FB4
:103790000AD0B9F5827F04D1A06810B9B8F1040F3E
:1037A00002D04FF0020A7DE00EB107B115B94FF01B
:1037B000010A77E094F85100042802D0052084F82B
:1037C0005100002060652663A586E586A763A5876E
:1037D000E5872064606494F85100042806D13548D8
:1037E000E16CC8623448E16C886205E03348E16C02
:1037F000C8623348E16C88623248E16C086300209B
:10380000E16C4863E38FD4F800C00CF10C01A26BAB
:10381000E06CFEF771FF48B1606D40F0100060652C
:103820004FF0010A012084F851003BE02068406815
:1038300040F00100216848600020A16CC862A16CC2
:103840008862A16C0863A16C4863E38ED4F800C061
:103850000CF10C02216BA06CFEF74EFF48B1606DBD
:1038600040F0100060654FF0010A012084F851001B
:1038700018E02068006800F04000402805D020686B
:10388000006840F04000216808602068406840F00F
:103890002000216848602068406840F002002168EC
:1038A000486000BF00BF002084F8500000BF5046B1
:1038B00062E700000D670008376700082967000805
:1038C0002F680008E56600082DE9F04104460E4621
:1038D0001546002700BF94F85000012802D10220AD
:1038E000BDE8F081012084F8500000BF94F8510039
:1038F000012801D0022758E006B10DB9012754E094
:10390000032084F85100002060652663A586E586C3
:10391000A06360642064A087E087A068B0F5004FD2
:103920000BD12068006820F0400021680860206802
:10393000006840F48040216808601F48A16CC8629C
:103940001E48A16C88621E48A16C08630020A16C0F
:103950004863E38ED4F800C00CF10C02216BA06C1C
:10396000FEF7CAFE40B1606D40F0100060650127AF
:10397000012084F8510018E02068006800F0400041
:10398000402805D02068006840F0400021680860A9
:103990002068406840F02000216848602068406846
:1039A00040F002002168486000BF00BF002084F89A
:1039B000500000BF384693E71B670008B167000856
:1039C000E5660008704770477047704770B5044659
:1039D0002546681EB0F1807F01D301200FE0681EEC
:1039E0004FF0E02148610F214FF0FF3004F072F8F2
:1039F00000204FF0E021886107200861002070BDA1
:103A00002DE9F04107460D461646B84627E0B5F5C4
:103A1000805F01DB344618E0042E01DD042000E065
:103A20003046044605F0010008B101240DE005F020
:103A3000020038B104F0010008B1012000E00220CA
:103A4000044602E0032C00D10124224629464046C8
:103A500002F0FBFB301B86B2A044281985B2002E71
:103A6000D5DC01210348FFF735F808B901F0ACFDBA
:103A7000BDE8F081001801402DE9F04107460D46F0
:103A80001646B84627E0B5F5805F01DB344618E0FE
:103A9000042E01DD042000E03046044605F001005C
:103AA00008B101240DE005F0020038B104F0010076
:103AB00008B1012000E00220044602E0032C00D1FE
:103AC000012422462946404602F0BFFB301B86B245
:103AD000A044281985B2002ED5DCBDE8F081000095
:103AE0002DE9F04107460D461646B84627E0B5F5E4
:103AF000805F01DB344618E0042E01DD042000E085
:103B00003046044605F0010008B101240DE005F03F
:103B1000020038B104F0010008B1012000E00220E9
:103B2000044602E0032C00D10124224629464046E7
:103B300002F0BBFD301B86B2A044281985B2002ECE
:103B4000D5D101210348FEF7C5FF08B901F03CFDBE
:103B5000BDE8F081001801402DE9F04107460D460F
:103B60001646B84627E0B5F5805F01DB344618E01D
:103B7000042E01DD042000E03046044605F001007B
:103B800008B101240DE005F0020038B104F0010095
:103B900008B1012000E00220044602E0032C00D11D
:103BA000012422462946404602F07FFD301B86B2A2
:103BB000A044281985B2002ED5D1BDE8F0810000BF
:103BC00010B5FEF725FA0148008810BDF00400206A
:103BD00010B500F081F80148008810BDF004002005
:103BE00038B500BF9320009002224FF4017168465F
:103BF000FFF776FF0020009002224FF40171684623
:103C0000FFF7FEFEBDF800009328EBD140F201144F
:103C10002146542002F056FC012421465C2002F08B
:103C200051FC582002F024FB002000F003F8002093
:103C300038BD000038B5044602224FF401716846D1
:103C4000FFF7DEFEBDF800002040009002224FF496
:103C500001716846FFF744FF02224FF401710248E8
:103C6000FFF7CEFE38BD0000F204002010B5154865
:103C7000007830BB14480068F0B113480068FEF7C4
:103C80002FFA114908601148406820B10F48406878
:103C90000968884203D90C4800680C4948600C4800
:103CA000406828B10A48406807490968884203D932
:103CB00005480068064948600020FEF711FA0249ED
:103CC000086010BDE003002070030020A80500205C
:103CD000EC05002000BFFEE710B502224FF408718A
:103CE0000148FFF7C9FE10BDF00400207CB500209C
:103CF000019004223948018801A8FFF781FE01984C
:103D000080B20190019885B23548007801281AD117
:103D10000A2003F063FF0446A4B100202060606025
:103D2000208104202080A08820F47060A0800120E1
:103D3000E080072121810021204600F0EFF9204694
:103D400003F0ECFE00BFA81D85B22648007810B92C
:103D50002548007818B10120244908703CE0002073
:103D60002249087022480088854201DD20480588E4
:103D70001F48008803F032FF1E49086008460068AB
:103D800018B90120194908707CBD2A4613480188DA
:103D900018480068FFF734FE00200090042240F627
:103DA00004016846FFF72CFE00980090009800F48C
:103DB000006068B1002010490860084800880C4A7B
:103DC00012881044001F81B204220B48FFF718FE2E
:103DD0000848006800F0ECF900BFD5E75404002063
:103DE0006C0400204D0400205A0400204C040020E4
:103DF000520400205C0400201C040020F8B5044696
:103E00002B48007800F00F00012801D1F020F8BD08
:103E10002848007808B9F020F9E72748007808B169
:103E20000720F4E72588A81D82B22448018820468F
:103E3000FFF756FE00200090042240F60C01684671
:103E4000FFF7DEFD00980090009800F4006010BBC2
:103E50001B480188A81D081A86B20020194908606D
:103E6000042E0CDAA81DC11700EB917189108F0088
:103E7000C6F10402E1191348FCF776F900BF0F48B8
:103E800000880F4A12881044001F81B204220D4896
:103E9000FFF726FE00BF0C48006810B100200B4958
:103EA0000860094804600120034908700020AEE75B
:103EB000100400204E0400204D0400205604002071
:103EC000500400201C040020600400205C0400203A
:103ED00008B52220224908804FF4807021490880CB
:103EE00000012149088021490880002020490880DC
:103EF00048800A20888000201E49088048800A20C7
:103F0000888000201C4908600120FDF7FDFC00208E
:103F10001A4908601A4908601A4908601A49087065
:103F20000090042240F60C016846FFF769FD0098F6
:103F300020F000700090042240F60C016846FFF764
:103F4000CFFD00201149087011490870114908700F
:103F500011490870114908701149087008BD000026
:103F60005204002050040020540400205604002075
:103F700074050020400500205C040020640400203B
:103F800060040020680400204F0400204E0400203C
:103F90004D0400204C0400205A0400205804002046
:103FA0005904002010B500203B4908703B480068C8
:103FB00048B13B48006830B93848006803F0AEFDAE
:103FC00000203649086037480068344908603448A2
:103FD000006838B132480068FFF710FF0020304910
:103FE000086008E03048FEF739F8044614B120466E
:103FF000FFF704FF00BF2D48007800284AD02B4867
:10400000007800F0010068B129480068FDF70EFB58
:10401000FDF754FB70B32548007820F001002349D8
:10402000087037E02148007800F0020098B10024C1
:104030001E48007820F002001C4908701C480068E7
:10404000FCF75EFD04462CB11848007840F00200F1
:10405000164908701EE01548007800F0080050B1BD
:104060001248007820F008001049087010480068D5
:10407000FDF732FC0EE00D48007800F0400048B13A
:104080000A48007820F04000084908700848006895
:10409000FDF7F0FD10BD00004D0400206404002079
:1040A0006804002060040020400500205A0400201D
:1040B0005C04002010B514480068D8B112480468A8
:1040C0001248007878B11248006860B90120FDF705
:1040D0003AF9104800680E4908600120FDF790FD8C
:1040E00000200A4908702046FFF788FE0020064994
:1040F000086000BF0848007808B9012000E00020EF
:104100000549087010BD0000640400204D04002023
:1041100068040020600400204F04002070B50446AD
:104120000D4600261E48007800F00F00012801D13E
:10413000F02070BDA08820F47040A080194800785D
:1041400000F0070010B9012016490870A088154931
:10415000097840EA0130A0802046FFF74FFE70B199
:104160001149204601F05AFB064616B145F080057C
:104170000AE00C480078401C0A49087004E009482D
:104180000078401C0749087005F0800030B105F048
:104190007F00064909780843044908703046C8E79B
:1041A0001004002059040020400500205A0400207B
:1041B0002DE9F04104460026A08805132788B7F5AD
:1041C000807F0EDD04202080A08820F47060A08015
:1041D0000120E0800821218100212046FFF79EFF79
:1041E0001EE01DB10F480078854215D00D480570BE
:1041F0000D49204601F012FB06468EB104202080B6
:10420000A08820F47060A0800120E0802681002139
:104210002046FFF783FF03E0204603F07FFC0024E5
:10422000BDE8F081580400207405002070B500241A
:1042300000BF00251748FDF711FF04461CB12046BA
:1042400000F0F6F9054665B104202080A08820F42E
:104250007060A0800120E080258100212046FFF7CA
:104260005DFF002CE5D10C48007860B10B48007868
:1042700048B9FDF723FA30B9FDF708FF054628468F
:10428000FDF728FA00BF0648007808B1FFF72EFDB9
:1042900070BD0000740500204E0400204D04002075
:1042A0004C04002070B500250020FDF70BFF0446EC
:1042B0002068000C2B49088020882B4908800120A9
:1042C000FDF700FF04462068000C2849088020887C
:1042D000274908802448008822490988084424493D
:1042E000098888420ADD2248008820490988084454
:1042F0001D490988884201DD162070BD1B480088D1
:104300000C381C4908800020FDF77AFC0120FDF7DD
:1043100077FC1448008803F061FC174908600846E0
:10432000006898B90120154908700A2003F056FC6E
:10433000114908600846006800B902250E48006867
:1043400003F0ECFB00200C49086009E000200B4959
:1043500008700948006803F0E1FB00200649086086
:104360002846CAE7520400205404002050040020CC
:1043700056040020D80300205C0400206C040020B8
:1043800038B500203A490870FCF7DDFF0120FCF742
:10439000DAFF3848006818B13648006803F0BEFB01
:1043A0003548006848B13448006832490968884295
:1043B00003D03148006803F0B1FB3048006878B1A1
:1043C0002E4800682B490968884209D02B480068AC
:1043D00029490968884203D02848006803F09EFBF9
:1043E00001F0AAFE0020FDF78FFAFDF787FC002000
:1043F000234908601F490860204908601E49086079
:10440000204908700090042240F60C016846FFF72E
:10441000F7FA009820F000700090042240F60C019A
:104420006846FFF75DFB00201749087017490870C0
:1044300017490870174908701749087000BF1748D6
:10444000FDF70CFE044614B1204603F067FB002C78
:10445000F5D100BF1248FDF701FE044614B1204615
:1044600003F05CFB002CF5D1FDF7F0F838BD00003F
:104470004E04002064040020680400206004002032
:104480005C0400204F0400204D0400204C04002058
:104490005A0400205804002059040020740500200C
:1044A0004005002008B500BF0E48406940F00100FB
:1044B0000C4948610846406900F00100009000BFC7
:1044C00000BF002211460E20FEF7A2FB0E20FEF7D1
:1044D0008FFB002211460F20FEF79AFB0F20FEF7FC
:1044E00087FB08BD0010024000B585B00020019098
:1044F00002900390049000BF3848806940F010009B
:10450000364988610846806900F01000009000BFBD
:1045100000BF00BF0846806940F008008861084677
:10452000806900F00800009000BF00BF00BF08468F
:10453000806940F0200088610846806900F0200012
:10454000009000BF00BF00BF0846806940F0040033
:1045500088610846806900F00400009000BF00BF39
:1045600000BF0846806940F04000886108468069C5
:1045700000F04000009000BF00BF002289141848DE
:10458000FEF7BAFA00224FF400511648FEF7B4FACB
:104590004FF48050019001200290002003900220EF
:1045A000049001A90E48FEF7F5F84FF40050019071
:1045B00001200290002003900220049001A90948E4
:1045C000FEF7E8F8012001900020029001200390FE
:1045D00001A90548FEF7DEF805B000BD0010024055
:1045E000000C0140001401400018014010B50E48B5
:1045F0000E4908604FF48270486000210B488160CA
:10460000C160016141614FF4007181610821C161A4
:1046100000210162416281620A21C162FEF728FF26
:1046200008B1FDF705FB10BD003800404006002032
:1046300070B50546A888C0F30320022809D00328D6
:1046400002D004280FD109E02846FCF7A3FB04465A
:104650000BE02846FDF77AF9044606E02846FDF708
:1046600077FB044601E0022400BF00BF204670BD76
:104670007CB5002500202A4908602A4908602A499B
:1046800008602A4908602A4908602A4908602A49BE
:1046900008602A490860FCF789FEFCF7DBFA012074
:1046A00027490870002027490870274908602749D2
:1046B0000860274908600190002400902AE0042245
:1046C0004FF4116101A8FFF7D7F904224FF41161EB
:1046D0006846FFF7D1F9DDE90010884204D8DDE92A
:1046E0000001401A009005E00198C0F1FF300099E8
:1046F000084400901648006818B9154900980860E9
:1047000007E0134800680099884202D910490098D0
:104710000860641CB4F57A7FD1D328467CBD0000C4
:104720005003002054030020580300205C030020A5
:104730006003002064030020680300206C03002055
:10474000940300207C0300207003002074030020E9
:104750007803002010B52348007800B910BD224826
:10476000007810B12148007838BB2148007820BB80
:104770001D480078C8B9FFF723FA044600BF04F4C7
:10478000806040B10120194908701A48007858B17A
:1047900000F0E4FF08E01848008828B904F400603D
:1047A00010B101201149087000BFFCF7E5FD134866
:1047B000007808B100F094FF00BF11480068B0F520
:1047C0007A6F01D3FCF70AFBFCF782FEFCF7CCF909
:1047D000FCF76EFB0B48006810B10A480068804780
:1047E00000BFBBE794030020FD030020DE03002090
:1047F000E0030020DC0300200A040020DD03002089
:104800000C0000206C03002000BFFEE7704710B5CD
:1048100030238370642391FBF3F304782344037003
:10482000642391FBF3F403FB1413DAB20A2392FB23
:10483000F3F34478234443700A2392FBF3F403FB1D
:10484000142384782344837010BD00002DE9FF5F9A
:104850000F4690461D460026D8F81490B8F80C0074
:10486000C0F3032B17B1BBF1070F0BD14846FBF781
:104870009FFC86B2002D4FD0324649462846FBF7B2
:1048800073FC49E0BBF1090F31D14FF0010A0397E6
:104890004846FBF78DFC401C00EB090417E0039829
:1048A00082450BD12046FBF783FC86B22DB126B1A1
:1048B000324621462846FBF757FC16E00AF1010074
:1048C0001FFA80FA2046FBF773FC401C044403984F
:1048D00082450ADC2078FF2807D02078FE2804D003
:1048E00020784FF6FF718842D9D100BF00BF9EB932
:1048F0000C268DB10A4BD3E901021968DB6801ACC3
:104900000DC400913946E01FFFF781FF0D22694673
:104910002846FBF729FC00BF304604B0BDE8F09FF5
:104920008004002030B502469489C4F30323082B89
:1049300005D109B9106907E01469A01D04E001EB75
:104940004105146904EB450030BDF0B504460D4641
:104950000021A889C0F30326002C02DD01F110001C
:1049600081B2072E01D10020F0BD01236CE0082E9A
:1049700002D12869821D04E003EB4307286900EB9C
:10498000470210881F281FD00ADCA0F10300092865
:1049900051D2DFE800F016325017313350501A0070
:1049A000B0F5187F12D006DC202829D02E280AD096
:1049B0002F2840D123E0A0F2622010B301283AD181
:1049C00020E000BF00BF00BF00BF00BF01F10F002B
:1049D0004FF6F07700EA0701A3420CDA10880B28A3
:1049E00003D01088B0F5187F02D15088084481B2F6
:1049F00001F1100081B224E000BF00BF00BF00BF82
:104A000000BF00BF01F11F004FF6E07700EA070189
:104A1000A3420FDA108840F26227B84203D0108810
:104A20007F1CB84203D15088084481B202E001F1F2
:104A3000200081B205E0A34202DA5088084481B226
:104A400000BF00BF581C83B2A34290DD08468BE72D
:104A50002DE9F04705462020A8401FFA80F9FCF711
:104A600073F804464FF000081FE02089B0F5805F1E
:104A70001ADB2E4696B194F80CA000270AE0F9B292
:104A80002046FFF74FFF808800EA090000B10026AA
:104A9000781C87B20EB15745F1DD00BF1EB908F191
:104AA00001001FFA80F800BF6468002CDDD1404689
:104AB000BDE8F087014601F10A00704770B5054670
:104AC000FCF742F8044605E02089A84201D12046BF
:104AD00070BD6468002CF7D10020F9E72DE9F041A2
:104AE00084461F469089C0F30324157B00232FB30F
:104AF000072C02D10020BDE8F081082C0BD1906971
:104B000005781069008900FB05F3D81DC30801B9B9
:104B10009B1C1846EFE7012608E006EB46081069E3
:104B200000EB480040880344701CC6B2AE42F4DD7E
:104B3000D81DC30801B99B1C1846DCE7072C04D11B
:104B400010694088C01DC010D5E709B90120D2E71F
:104B5000082C04D110690089C01DC010CBE78D421C
:104B600001DA0020C7E701EB4106106900EB4600BF
:104B70004088C01DC010BEE72DE9FC5F05460E460B
:104B800017469846DDF830B02020A84080B201904A
:104B90003088B0F5805F0AD1FBF7D6FF044644B9F0
:104BA000BBF1000F05D01B208BF8000001E020486E
:104BB00004688CB32DE02089B0F5805F28DBA9461E
:104BC000B9F1000F19D0207B00904FF0000A0DE0E2
:104BD00051462046FFF7A6FE80880199084008B19B
:104BE0004FF000090AF1010000F0FF0AB9F1000FCF
:104BF00002D000988245EBDD00BFB9F1000F06D16D
:104C00002089A8F8000008F10208B81E87B200BF8A
:104C100064680CB1012FCEDC14B12089308002E031
:104C20004FF6FF703080024804603846BDE8FC9FB4
:104C3000CC0400202DE9FF4F87B0824689461F46ED
:104C4000149CC846B889C0F303200690387B0590B1
:104C5000CDF810900698072805D0BAF5805F02DBE2
:104C6000B86900780590159860B10698072802D0B9
:104C7000BAF5805F03DA05200BB0BDE8F08F059828
:104C800004901EE00598814501DD1120F4E708F04D
:104C9000FF013846FFF746FE0546A88878B1F74879
:104CA000007800F00F00A98800EA410048B928798F
:104CB00000F0070008B90620DEE71A20DCE705202F
:104CC000DAE7F86940B1159800902346FE69494635
:104CD0005046099AB047CFE7BAF5805F4ADAB9F192
:104CE000000F47D0BE6949463846FFF71BFE054610
:104CF0006888C01D4FEAE00B0396A9F10100039EEE
:104D000056F8206006F0010038B3002026F00106B6
:104D100000BF0BE03188090A21802188B27841EA7E
:104D200002212180A41CB61C411C88B20BEBDB7253
:104D3000B0EB620FEEDB59460BEBD1725210ABEBCE
:104D40004202012A08D1218801F47F412180218873
:104D5000328841EA122121800BE03088208070885F
:104D60006080241D361DABF1040231462046FBF75E
:104D7000FBF997E1002003900290C84689E1D7F83B
:104D800018B00026B8F1000F08D0BAF5805F05DB37
:104D900008F0FF003946FFF7D8FD064630110BEB4F
:104DA000400B08F0FF013846FFF7BCFD0546B3484D
:104DB000007800F00F00A98800EA410000287CD0AC
:104DC000C84504D01598002878D0C84576DBB8F1DE
:104DD000000F06D10698072803D005982080A41C50
:104DE00024E1288800902888B0F5E06F12DB6888FD
:104DF000082804DC68882F3080B200900AE06888B8
:104E0000102802D10620009004E06888202801D1F3
:104E10000720009000981F287ED013DC1F287CD22A
:104E2000DFE800F03A535D8F9F5E909EA0E4C5C618
:104E3000FEFEFEFEFEB0FEFEFEB1FEFEFEFEFEB279
:104E4000FEFE5F00342845D012DC30283ED008DC5E
:104E5000202874D02D2841D02E2874D02F285CD142
:104E600081E0312833D0322832D03328F7D130E0F6
:104E7000B0F5187F72D006DC35282CD036282BD020
:104E80003728ECD129E0A0F26120002867D0012862
:104E90006FD00228E3D18FE0159898B1A87800F080
:104EA0000F00002805DDA878304400F00F0000B99D
:104EB000A41CA878C0F3031001E0B8E0E5E004EB1F
:104EC000400401E01820D7E6ACE000BF00BF00BFFF
:104ED00000BF00BF00BF00BF00BF00BF00BF00BFDA
:104EE00000BF00206988664A32F8111006F00F02F0
:104EF000914089B20191BBF8000006F00F0109B999
:104F00000021218021882180159939B12188019AB9
:104F100002401143218009E016E081E0019901403F
:104F200006F00F021141228811432180218821803F
:104F3000A978314401F00F0101B9A41C72E013E01B
:104F400001E000BF00BF00BF06F00F0008B1052060
:104F500092E6BBF800002080A41C63E029E029E071
:104F600000BF00BF00BF00BF06F00F0010B105205A
:104F700082E620E0BBF800002080BBF802006080E1
:104F8000241D4FE000BF00BF06F00F0008B1052050
:104F900072E6BBF800002080BBF802006080BBF81E
:104FA0000400A080BBF80600E08008343AE000BFAF
:104FB00000BF00BF00BF00BF06F00F0008B1052012
:104FC0005AE66888C01DC21059462046FBF7CCF847
:104FD000688820F00F000F30001104EB4004A8781F
:104FE00000F00F0008B1207820801BE006F00F00D1
:104FF00008B1052040E66888C01DC2105946204609
:10500000FBF7B2F8688820F00F000F30001104EBB6
:105010004004A87800F00F0008B12078208001E05B
:10502000182029E600BF0120039000BF2DE00020DA
:1050300006F00F0109B900212180A97801F00F01C4
:10504000002907DDA978314401F00F0111B9A41C32
:1050500000212180002004E0A41C00212180411CAB
:10506000C8B2A978C1F303118142F5DC297901F0B6
:10507000070139B90621029106E000001004002062
:10508000568100081A21029100BF08F101001FFAA1
:1050900080F8049880457FF772AE039808B90298AB
:1050A000EAE500BF0020E7E52DE9FF4F89B006469D
:1050B0008B469A46169CD846BAF80C00C0F30320DB
:1050C0000890002007909AF80C00069000200590A8
:1050D000CDF810B0089807281FD0DAF8180000782B
:1050E00007900798C8B941F61040864203DB41F6A5
:1050F0002F4086420FDDB6F5B05F02DBB6F5C05F2C
:1051000009DBB6F5D05F02DBB6F5E05F03DB4FF2FB
:105110003000864201D106980790179880B1089810
:10512000072803D105200DB0BDE8F08FBBF1000FBB
:1051300003D10B9808B120780790079804901DE0E0
:105140000798834501DD1120EDE759465046FFF7EA
:10515000E9FB0546287900F03800F749097801EAAB
:10516000A00058B9287900F0380028B9A88808B9F3
:105170000520D8E70720D6E71A20D4E7BBF1000FB7
:105180001EDD41F61040864203DB41F62F40864289
:105190000FDDB6F5B05F02DBB6F5C05F09DBB6F533
:1051A000D05F02DBB6F5E05F03DB4FF230008642F2
:1051B00006D1DAF81810087808B10121059100BF6E
:1051C000DAF8200048B1179800902346DAF82070EA
:1051D000594630460B9AB847A5E7002003900720B0
:1051E00002900B9808B900209DE7D846E0E1DAF874
:1051F00018704FF0000908F0FF015046FFF792FBCE
:10520000054608F0FF005146FFF79FFB81462879CD
:1052100000F03800C849097801EAA00000286FD0E2
:10522000B8F1000F03D04FEA291007EB4007D8452B
:1052300004D0179800287CD0D8457ADBB8F1000F4D
:105240000CD10898072809D021780698884201DAFD
:10525000132068E720883880A41C8CE128880090FF
:105260002888B0F5E06F12DB6888082804DC6888BD
:105270002F3080B200900AE06888102802D1062002
:10528000009004E06888202801D107200090009851
:105290001F2877D013DC1F2875D2DFE800F03B53BE
:1052A0005D94FD5E95FCFBFAF9F87474747474F700
:1052B000747474F67474747474F574745F003428C0
:1052C00045D012DC30283ED008DC202878D02D28AC
:1052D00041D02E2879D02F2855D1E6E0312833D07F
:1052E000322832D03328F7D130E0B0F5187F69D0BA
:1052F00007DC35282CD036282BD03728ECD129E0F4
:105300003CE1A0F2612000287ED001287DD0022857
:10531000E2D10CE1179890B1A87800F00F000028B6
:1053200005DDA878484400F00F0000B9A41CA87857
:1053300000E039E1C0F3031004EB400401E0182061
:10534000F1E616E100BF00BF00BF00BF00BF00BF15
:1053500000BF00BF00BF00BF00BF00BF00216888C2
:10536000764A32F8100009F00F02904080B20190A6
:10537000398801988143179830B12088019A1040EC
:10538000014315E022E0F2E020886A886B4B33F895
:105390001220904308B11220C5E620886A88674B26
:1053A00033F81220104009F00F029040084381B2F8
:1053B0003980A878484400F00F0000B9A41CD8E058
:1053C00074E002E0B0E000BF00BF00BF09F00F00D2
:1053D00008B10520A7E62388059820B138889842AF
:1053E00001D01C209FE641F61040864215DB41F6B5
:1053F0002F40864211DCB3F5B05F02DBB3F5C05F2E
:105400000BDBB3F5D05F01E08FE08FE002DBB3F59B
:10541000E05F02DB0BB1122085E641F632408642A6
:1054200002D0401C86423AD1B8F1010F0ED1388823
:10543000984208D019463046FBF7D4FE02900298F5
:1054400008B102986FE601203D490870B8F1080FD5
:1054500025D100203B4948613B4808610020486055
:105460003A494861384808610020486003F002006A
:10547000022814D1002033494885088581F840006E
:1054800032494885088508E029E027E025E04AE020
:1054900048E033E008E005E005E081F840003B80AB
:1054A000A41C66E000BF00BF00BF00BF09F00F00F2
:1054B00008B1052037E6059848B138882188884228
:1054C00003D178886188884201D01C202BE620888F
:1054D000388060887880241D4BE000BF00BF09F051
:1054E0000F0008B105201EE620883880608878808B
:1054F000A088B880E088F88008343AE009F00F000E
:1055000008B105200FE66888C01DC2102146384644
:10551000FAF72AFE688820F00F000F30001104EB24
:10552000400426E000BF00BF00BF00BF00BF09F07D
:105530000F0068B10520F6E5100400205681000830
:1055400070040020A8050020A0860100EC050020C2
:105550006888C01DC21021463846FAF705FE6888E3
:1055600020F00F000F30001104EB400401E0182080
:10557000D9E500BF00BF0120039015E0B8F1000F8E
:1055800001D1A41C0EE0A87800F00F00002805DD72
:10559000A878484400F00F0000B9A41C68880009EE
:1055A00004EB40041820029008F101001FFA80F873
:1055B000049880457FF71BAE039808B90298B2E5BE
:1055C00000BF0020AFE5000010B539480078002882
:1055D0006BD0FEF7FDFA044600BF04F4806078B398
:1055E0003448007828B13448007810B1002033499D
:1055F00008803348008D002804DD3148008D401EAE
:105600002F4908852E48008D2E49088501202E49F6
:1056100008702E48007810B100F0A0F810E00422C5
:105620002B4801882B48FEF727FA294800882A4A88
:1056300012881044001F81B204222648FEF71CFA8B
:105640001F484088012801D1FBF796FE23480078C7
:1056500048B11C484088012803D01A4840882228B5
:1056600001D100F03DF8FEF7B3FA044600BF04F4A0
:105670008060C8B11248408D401C114948850846D9
:10568000408D104948850422114801881148FEF7D1
:10569000F3F90F480088104A12881044001F81B2A5
:1056A00004220C48FEF7E8F900BFFBF7D3FB10BD5E
:1056B000FD030020E4030020E0030020E6030020B7
:1056C000A8050020EC050020DE030020DC030020FC
:1056D000140400201C0400200A040020DD03002024
:1056E00070B50024FEF774FA054600BF1648007F27
:1056F00000F0010020B91548007F00F0010018B14A
:105700000020FCF7EDFC04461148FBF759F911485D
:105710000288114801880E48FEF71EFA0A48007FE9
:1057200000F0010020B90948007F00F0010048B1F5
:105730002046FCF7D5FC044604484069A04201D24B
:105740000248446170BD0000A8050020EC0500205F
:105750008C030020080400201604002010B500244B
:105760001B48007F00F0010020B91A48007F00F0BC
:10577000010068B10020FCF7B3FC04461648046041
:10578000012016490870002015490860FEF76EFADE
:1057900014480288144801881448FEF76DF913482C
:1057A000FBF71CF90A48007F00F0010020B9094806
:1057B000007F00F0010048B12046FCF791FC044650
:1057C00003484069A04201D20148446110BD000075
:1057D000A8050020EC050020740300207C030020B5
:1057E000800300200A040020140400208403002009
:1057F000704700000146084A5288521C90B2064A7F
:10580000D288824200D10020034A5388083242F8ED
:105810002310083A508070473005002010B5034629
:105820004888401C82B28888904200D100220888B3
:10583000904201D1072010BD4C8801F1080040F8CA
:1058400024304A800020F6E70146084A5288521C5C
:1058500090B2064AD288824200D10020034A53887F
:10586000083242F82310083A508070472005002083
:1058700008B508490968C9084FF47A72B1FBF2F11A
:105880004143009100BF00BF00994A1E00920029C9
:10589000F9D108BD140500202DE9F04104460D465C
:1058A00016461F46DDF8188041F2F800844202D007
:1058B0000B20BDE8F081B8F1000F01D00520F8E71A
:1058C000002D01DD1120F4E7082E01D90F20F0E7AB
:1058D000FBF784FA324603493846FAF745FC0020C4
:1058E000E7E700000000002038B5044600200090E3
:1058F00004224FF401716846FEF782F800982040B8
:10590000009004224FF401716846FEF7E9F838BDB3
:105910002DE9F04F89B004460026277A07F0E00809
:10592000208808900020079082460690F948007869
:1059300018B1092009B0BDE8F08FB8F1000F71D09F
:10594000B8F1200F06D0B8F1400F04D0B8F1600FC5
:1059500069D1BBE100BF94F80AB04FF6FF7000EACE
:105960000B2B20890BEB10201FFA80FB60894FEA7C
:1059700010295846FFF7A2F80546002D6ED00020EA
:10598000059004900390287B02900298814501DDE8
:10599000112608E007F010032A4649465846FFF74B
:1059A0009DF8824606900EBBB8F1400F23D10898AF
:1059B0000A2801D00820BDE7BAF1040F0DD8BAF1CA
:1059C000000F0AD00120059004F10C000490002182
:1059D000049801800498418010E0CF480088103876
:1059E00006900698504502D20120039006E004F18B
:1059F0001000049002E007F0020005906EBBB8F1C1
:105A0000200F38D1059878B108980A2801D00820CD
:105A100090E7C7F38100C0F10400069004F10C0088
:105A2000049028E051E164E1A289E08902EB0041A1
:105A300001F11000B94A1288904207D9B74800888E
:105A4000801F089A90420AD0082073E701F10A00EB
:105A5000089A904203D008206CE70CE033E104F18F
:105A600010000490069108980A380699884201D2DD
:105A70000120039000BF46B907F0100028B10120B3
:105A80000790B9F1010F00DD0526002E35D10398EE
:105A900000287DD00120A2490870A2490870A249BF
:105AA00007980870A148A0F800B0A14880F80090BD
:105AB000A0480560B8F1400F03D19F48C0F800A08E
:105AC00002E09D49069808609C48006830B19B48F8
:105AD000006802F023F80020984908609649096898
